S0220000687474703A2F2F737265636F72642E736F75726365666F7267652E6E65742F1D
S2242100003DB8F39600000000000200001CC306000000000001000000000000000000000054
S224210020FFFFFFFFFFFFFFFFFFFFFFFFFFFFFFFFFFFFFFFFFFFFFFFFFFFFFFFFFFFFFFFFBA
S224210040FFFFFFFFFFFFFFFFFFFFFFFFFFFFFFFFFFFFFFFFFFFFFFFFFFFFFFFFFFFFFFFF9A
S224210060FFFFFFFFFFFFFFFFFFFFFFFFFFFFFFFFFFFFFFFFFFFFFFFFFFFFFFFFFFFFFFFF7A
S224210080FFFFFFFFFFFFFFFFFFFFFFFFFFFFFFFFFFFFFFFFFFFFFFFFFFFFFFFFFFFFFFFF5A
S2242100A0FFFFFFFFFFFFFFFFFFFFFFFFFFFFFFFFFFFFFFFFFFFFFFFFFFFFFFFFFFFFFFFF3A
S2242100C0FFFFFFFFFFFFFFFFFFFFFFFFFFFFFFFFFFFFFFFFFFFFFFFFFFFFFFFFFFFFFFFF1A
S2242100E0FFFFFFFFFFFFFFFFFFFFFFFFFFFFFFFFFFFFFFFFFFFFFFFFFFFFFFFFFFFFFFFFFA
S224210100FFFFFFFFFFFFFFFFFFFFFFFFFFFFFFFFFFFFFFFFFFFFFFFFFFFFFFFFFFFFFFFFD9
S224210120FFFFFFFFFFFFFFFFFFFFFFFFFFFFFFFFFFFFFFFFFFFFFFFFFFFFFFFFFFFFFFFFB9
S224210140FFFFFFFFFFFFFFFFFFFFFFFFFFFFFFFFFFFFFFFFFFFFFFFFFFFFFFFFFFFFFFFF99
S224210160FFFFFFFFFFFFFFFFFFFFFFFFFFFFFFFFFFFFFFFFFFFFFFFFFFFFFFFFFFFFFFFF79
S224210180FFFFFFFFFFFFFFFFFFFFFFFFFFFFFFFFFFFFFFFFFFFFFFFFFFFFFFFFFFFFFFFF59
S2242101A0FFFFFFFFFFFFFFFFFFFFFFFFFFFFFFFFFFFFFFFFFFFFFFFFFFFFFFFFFFFFFFFF39
S2242101C0FFFFFFFFFFFFFFFFFFFFFFFFFFFFFFFFFFFFFFFFFFFFFFFFFFFFFFFFFFFFFFFF19
S2242101E0FFFFFFFFFFFFFFFFFFFFFFFFFFFFFFFFFFFFFFFFFFFFFFFFFFFFFFFFFFFFFFFFF9
S22421020060900220856C0100B16A0100816C0100816C0100816C0100816C0100816C0100F2
S224210220000000000000000000000000F1200100816C0100000000000921010071210100DA
S224210240FD4A01003D4C0100314D0100F94D01007961010051620100E56301005162010054
S224210260E5630100513A0100E13A0100053B0100E93B01002D550100DD4F01008543010088
S224210280FD4A01003D4C0100314D0100F94D0100093D01004D3E01007D3301007134010076
S2242102A02D550100513A0100E13A0100053B0100E93B0100DD4F010081580100095801001E
S2242102C0E127010015280100392801005D28010000000000000000000000000000000000C9
S2242102E00000000000000000000000000000000000000000000000000000000000000000D8
S2242103000000000000000000000000000000000000000000000000000000000000000000B7
S224210320000000000000000000000000000000000000000000000000000000000000000097
S224210340000000000000000000000000000000000000000000000000000000000000000077
S224210360000000000000000000000000000000000000000000000000000000000000000057
S224210380000000000000000000000000000000000000000000000000000000000000000037
S2242103A0000000000000000000000000000000000000000000000000000000000000000017
S2242103C0FFFFFFFFFFFFFFFFFFFFFFFFFFFFFFFFFFFFFFFFFFFFFFFFFFFFFFFFFFFFFFFF17
S2242103E0FFFFFFFFFFFFFFFFFFFFFFFFFFFFFFFFFFFFFFFFFFFFFFFFFFFFFFFFFFFFFFFFF7
S22421040010B5054C237833B9044B13B1044800E000BF0123237010BDD8340020000000006B
S2242104209C77070008B5034B1BB10349034800E000BF08BD00000000DC3400209C77070060
S22421044000207047F0B5002303214FF4006610241148124A124F134D016141618261C76151
S224210460066283624362C3620266456684660367C3664367BFF35F8F0B4B53219E46A3F123
S2242104800F0C01E013F90119AEEB030263458154F8D1BFF35F8FF0BDF4340020B86F06006E
S2242104A0AC3500209C350020D26F06002DE9F843D0E90295A9EB050890450446164609D93E
S2242104C0406828444EF0A4F9BFF35F8F3544E560BDE8F8830F464068424628443544A5EB8F
S2242104E009054EF095F92A46606807EB08014EF08FF9BFF35F8FE560BDE8F8832DE9F843AD
S2242105004FF00009064617468846D0E9021433690D1B9C4203F1FF3224BF03F1FF325218EE
S224210520BD4228BF3D46121B954228BF1546706841462A4620444EF06BF9B1682C44A142A5
S22421054008BF0024A944A8447F1BBFF35F8FF460002FDCD14846BDE8F88300BF38B5204B82
S22421056000EB400403EBC40EDEF82C40013000EB4000012C8C46154603EBC00005D0022CBD
S22421058029D0ACB10024204638BDDEF82830DEF8242093429CBFDEF820401B19013B9C1A8C
S2242105A0AC4228BF2C462246FFF780FF204638BDDEF82830DEF8242093429CBFDEF8201018
S2242105C05B18013B9B1A9D42DDD82A466146FFF76DFF2C46D7E7BDE83840FFF78FBF00BF34
S2242105E0F434002030B50C4B0C461B7883B063B1EFF311854FF0200181F311882146FFF7E3
S224210600ADFF85F3118803B030BDCDE90002FFF719FFDDE90002EBE7F4340020D0E90123D2
S22421062010B50446581C904207D82268D1540346E16862680131C4E902019A4200D010BDFA
S22421064021682069FFF7CEFFA368984215BF4FF0FF330023E360A36010BD00BF2DE9F84F23
S22421066091420F46DDE90A94154683461E4660D30B464FF00108B3FBF5F39D4208F10108FD
S224210680F9D9B04538BFB04614F0010A02D1B9F1000F35D1DBF80C30002B2FDB012402E094
S2242106A0013E05FB04F4012EFAD8B7FBF4F39D42F7D9214E06E0AC42B4FBF5F30CD31C4679
S2242106C0B7FBF3F3F156584604FB1377FFF7A6FFDBF80C30002BEEDABAF1000F0ED0B9F10F
S2242106E0000F0BD0C84509F1FF3907D220215846FFF794FFDBF80C30002BF0DABDE8F88F3A
S224210700A30711D420240CE021465846FFF786FFDBF80C3009F1FF39002BEFDBB9F1000F85
S224210720BCD0C845F0D3B5E7002E0CBF30242024F7E74FF00108A4E7D86F06002DE9F04FB7
S224210740002340249BB00DF1280A80460D461746CDE905A4CDE90733DFF8A492099005E021
S22421076005A8FFF75BFF0898002866DB15F9011B002965D02529F3D1294600260D4611F9C1
S224210780013BA3F123020D2A08D8DFE802F0480707070707070745074B070742A3F1300248
S2242107A0D2B2092A4FF000040BD804EB840403EB440415F9013F303CA3F13002D2B2092A52
S2242107C0F3D92E2B00F0CB80002395F9001001E015F9011F21F00402682AF9D0252924D00F
S2242107E05839CAB2202A23D8202921D8DFE801F03320202020202020202020AD60202020A7
S224210800202020202020202052202042203F2020330046F00206B1E746F00406AEE746F02B
S2242108200806ABE746F00106A8E705A8FFF7F6FE0898002805F1010598DA1BB0BDE8F08F6A
S22421084008980028F9DD079A002A40F0A08010441BB0BDE8F08F1022386801680430CDE951
S2242108600046386005A8FFF7F9FE0898E1E70A223868F2E73B681A1D3A601C6805E005A843
S224210880FFF7CCFE08980028D3DB14F9011B0029F5D1CDE708230024386810220168043072
S2242108A0386005A8CDE90034FFF7D8FE0898C0E73A680120D2F800B004323A608BEAEB72F1
S2242108C0A2EBEB72092A08DD1146A9FB02C2632900F101004FEAD202F6DC9842024638BFBB
S2242108E01A46039264B3BBF1000F58DB710756D4B20700D523B3F00722D40CB3039AA242A5
S2242109001ED205A820210293FFF788FE089A013C002A10468DDB029B002CEFD1BBF1000FB7
S2242109203FDB71074BD406F0030102294ED005A859460A22CDE90046FFF790FE089878E7A6
S224210940089A002A1046E9DA73E73B6805A81A1D93F900103A60FFF761FE089869E795F9A2
S22421096001100135A1F13003DBB2092B4FF000033FF630AF03EB830301EB430315F9011F5A
S224210980303BA1F13002D2B2092AF3D922E751464046FFF727FEDDE90720104458E7013C81
S2242109A0A6E72D2105A80293FFF738FE029BCBF1000B089A002A1046FFF63BAFB3E72B217D
S2242109C005A80293FFF72AFE029BF2E7002BAED1A4B10399A1420CD205A830210293FFF736
S2242109E01DFE089A013C002A1046FFF622AF029BEEE7002A1046FFF61CAF98E7002496E7BF
S224210A00CDCCCCCC0EB400B582B003AB53F8041B01AA0193FFF792FE02B05DF804EB03B050
S224210A20704700BF08B51BF0D9FE052007F054FEF9E700BF08B51BF0D5FD1BF089FE1BF037
S224210A40C7FE08B100F0FEFA052007F045FEF2E72DE9F0434FF0FF380027134E134C144DCB
S224210A60DFF8509083B0002301224FF6FF713068CDF8008006F0BCFA2F7020600028F2D0D9
S224210A80002307E0206801334008DBB220602B700028E8D0C207F5D5042BF3D199F8300053
S224210AA016F05EF82B78EDE7904D0020AC3D0020B03D002010920120034629B10121054AD3
S224210AC09940106806F046BB0121024A9940106806F020BB904D002010B5054C204630F07F
S224210AE041FA2046BDE81040024A03492FF0BABBB43D0020B0330020CD110400F0B5114D15
S224210B00114F124E99B02B68C3B13C68502204F10C01684614964DF07BFE94E80E00204689
S224210B2027F0FEF8D6ED0D7AFCEEE77ACDED177A28689DF85C1003685B6A9847FA2007F0F1
S224210B40CBFDE0E7848801208C8801209088012010B5054C204630F005FA2046BDE810404F
S224210B60024A03492FF07EBBB83D0020B0330020CD11040010B5074C206838B103685B69AD
S224210B809847C0B210B11E2000F05CFA322007F0A3FDF1E78488012010B5054C204630F00F
S224210BA0E1F92046BDE81040024A03492FF05ABBBC3D0020B0330020CD11040038B50A4CCD
S224210BC00A4D4FF0FF322146286806F0F7FD012808D1A18820680EF0B5FB0028F1D000F00D
S224210BE031FAEEE70320FAE7C03D00208067002038B5114D114C21464FF0FF32286806F0A2
S224210C00DDFD0128014615D1642005F01DFF03E00121052005F018FF16F026FE0028F7D199
S224210C200246A188206816F05FFE0028E3D000F009FAE0E70220FAE7D46B0020C83D002016
S224210C4008B52CF097FD2EF0CFFD2EF05DFF0A2007F042FDF5E700BF38B5044D044C4FF0D5
S224210C60FF322146286806F0A9FDF8E7E8440020648D012038B5FE22ED2112484DF0EFFDAF
S224210C80114D124C4FF0FF322146286806F096FD0128F7D10146642005F0D6FE03E00121F8
S224210CA0052005F0D1FE16F073FE0028F7D14FF48071204616F0A6FE0028E3D000F0C2F9F4
S224210CC0E0E700BF6A9001203C4900206890012000B583B0019001F059F8019803B05DF833
S224210CE004EB0DF031BA00BF30B506250A4C83B003464FF4A072094909480194009507F03D
S224210D0089FA012801D103B030BD0021206803B0BDE8304001F038B8D03D0020E86F0600B3
S224210D20D10C01002DE9F04F2DED028B83B007F001FD9FED4E8A0230DFF888B1DFF88891F5
S224210D404B4E4C4D4C4CDFF88481019007F072FF4A4FCBF800007B68494A4FF47A7013605C
S224210D60D9F80030474ADFF868A1136007F0B4FCD9F80030444A13607B68444A444F136048
S224210D8007F058FF434B1860434B186806F08EFE3368424A8342424B106088BF3060186809
S224210DA006F084FE73683D4A83423E4B106088BF7060186806F07AFEB368384A834210609E
S224210DC088BFB06057F8040B07F0BAFC206007F0F7FEBD424AF8040BF4D12E4B294A1B689B
S224210DE01268314F1344DBF800209B1A264A12689B1A07EE903A224A244B12681B68F8EEB8
S224210E00677A9B1A07EE103A67EE887AB8EE477AC7EE876AFCEEE67A244BD8F8002018783A
S224210E20411CC9B2197017EE903A47F8203020481A447829C0ED007AC8F800200AD11D491E
S224210E40A1FB02121C4992090A6000221749C8F800200A7019490A68934238BF0B6018490A
S224210E600A6893427FF672AF0B606FE700007A44A8080020E0080020F03F0020001000E0D9
S224210E8024400020E83D0020E43D002020400020B4080020DC3D0020D46B0020FC3D0020D5
S224210EA08067002008520020043E0020003E0020D83D002089888888D43D0020A408002078
S224210EC0EC3D0020E03D0020E83F0020E43F0020F43F002000200749074BD1F8FC2042F0B0
S224210EE08072C1F8FC2058601A6842F001021A60704700BF00ED00E0001000E0014B5868DD
S224210F00704700BF001000E0014B1868704700BFD83D002005480649064A074B00680968B7
S224210F201268C3E900019A60704700BFD46B00208067002008520020F03D0020022800D0CD
S224210F407047024B0248596803F0A4BB20730600D05A002010B5054C204630F003F820462A
S224210F60BDE81040024A03492FF07CB928400020B0330020CD11040008B5084B186818B1A4
S224210F804FF0FF3106F0DCFC0A2021F075FC21F0E7FA0A2007F0A0FBF6E700BF2C67002045
S224210FA010B5054C20462FF0DDFF2046BDE81040024A03492FF056B92C400020B0330020E4
S224210FC0CD11040010B513F0E5FF38B1BDE8104010230020054A0649FFF714BD1423BDE8EB
S224210FE01040024A0349FFF70DBD00BF8C7006009C700600D0700600F0B583B0FFF7E2FF5B
S22421100000240D4D0D4F0E4E69462868CDE9004410F09AFB60B931462E233A46FFF7F2FC61
S22421102069462868CDE9004410F08EFB0028F2D0684613F015FCE7E77C56002008710600DD
S2242110401871060000B97047014A1070FFF7F8B92D40002010B500F061FC14F07FF8044695
S22421106008B1204610BD16F067FA0AF055FC04460028F6D116F0FEFB04460028F1D116F03A
S22421108093FC04460028ECD10AF05CFA04460028E7D10AF065FA04460028E2D10AF06EFA12
S2242110A004460028DDD10122144915480AF0D8FA04460028D5D112480AF0E8FA0446002881
S2242110C0CFD10F480AF014FB04460028C9D10AF039FB04460028C4D11BF060FA04460028D2
S2242110E0BFD10EF0FBF804460028BAD109F052FF0AF0D6F80EF0A8F9B3E700BFB874060010
S2242111006C77002010B5064C02E0002007F040F9FFF7A0FF0028F8D02070FFF791F9F4E7ED
S2242111202D40002010B5054C20462FF01BFF2046BDE81040024A03492FF094B83040002059
S224211140B0330020CD11040000B585B0EC46054B0FCB8CE80F00604609F06EFD002009F098
S2242111608FFDFBE75471060008B50AF049FB0EF06DFD60B90EF070FD10B90EF073FD08B139
S2242111800EF0FEFC0EF06EFD08B90EF0ADF90A2007F0A2FAEBE700BF10B5054C20462FF07A
S2242111A0E1FE2046BDE81040024A03492FF05AB834400020B0330020CD110400007809F01C
S2242111C025BF00BF90F9000080B209F01FBF00BF008809F01BBF00BF008809F017BF00BFC5
S2242111E0008809F013BF00BF008809F00FBF00BF008809F00BBF00BF008809F007BF00BF99
S224211200D0ED007AFCEEE77A17EE903A98B209F0FDBE00BF007809F0F9BE00BF2DE9F84362
S2242112201E4A1F4F1F4B2048C7E900231F49204A204BC7E90201C7E904231F481F49204A0D
S224211240204BC7E90601C7E908231F4C1F4E204DDFF880804FF0FF322146306806F0AEFA42
S224211260012818D1D5E9003221880133A07842F10002013958F82190C5E9003257F8201082
S22421128060688847014648460EF06EF80028E1D0FFF7D8FEDEE72120FAE700BFBD1101003E
S2242112A04040002015120100C5110100D1110100D9110100E1110100E9110100F1110100AA
S2242112C0F911010001120100384000200852002068400020780C002008B509F0FFFF4FF454
S2242112E07A7007F0F9F9F8E700B583B0019000F04DFD019803B05DF804EB0CF029BF00BF30
S22421130030B506250A4C83B003464FF4A072094909480194009506F07DFF012801D103B083
S22421132030BD0021206803B0BDE8304000F02CBD7040002064710600E91201002DE9F84F4C
S224211340002007F025F8414C414D424FDFF828A1DFF82891404EDFF828B1DFF828814FF05A
S224211360FF322146286806F029FA22689379033B072B12D8DFE803F0041111111139221A9F
S22421138036490020FFF73EFB2368587809F060FF23680020597809F0F7FE4FF08052304BB0
S2242113A05A60BFF34F8FBFF36F8FD8E733882D49013300203380FFF725FBEEE72A49002098
S2242113C0FFF720FB206809F04BFF22683B88D2F808C001334FF40071404699F800203B8052
S2242113E0CAF800C009F0BCFED7E7938903F47F43B3F5005F15D0B3F5085F1CD0B3F5045F0D
S224211400CBD159460020FFF7FDFA23684FF4007140465A7809F0A4FE14490020FFF7F2FACD
S224211420BBE713490020FFF7EDFA23680120597809F0AAFEB1E70F490020FFF7E3FA2368FF
S2242114400220597809F0A0FEA7E700BF744000207C70002078400020804000207C71060004
S22421146000ED00E0B87106009471060054720600E0710600047206007C4000209D7F012087
S22421148030720600A07F012000B587B00CF078FF01A8FFF735FF0CF09DFE18B901A8FFF705
S2242114A023FCFEE72023034A03490020FFF7AAFAF4E700BF707206008472060000B583B006
S2242114C0019000F063FC019803B05DF804EBFFF7A9BA00BF30B508240D480E4A03680E4DDA
S2242114E085B0591CCDE901250C4B01604FF400720B490C48009406F051FE0B4B186008B1CB
S22421150005B030BD014605B0BDE8304000F03CBCC4790020609002208C400020B87206007F
S22421152004700600BD1401008840002000B583B0019000F02BFC019803B05DF804EBFFF73B
S22421154079BA00BF30B506240D480E4A03680E4D85B0591CCDE901250C4B01604FF480727E
S2242115600B490C48009406F019FE0B4B186008B105B030BD014605B0BDE8304000F004BC12
S224211580C479002060980220FC400020BC7206006C7006002D150100F840002000B583B0B9
S2242115A0019000F0F3FB019803B05DF804EBFFF74FBA00BF30B501240D480E4A03680E4DCB
S2242115C085B01919CDE901250C4B01604FF4A0720B490C48009406F0E1FD0B4B186008B1FE
S2242115E005B030BD014605B0BDE8304000F0CCBBC4790020609C02206C410020C07206001B
S224211600347006009D1501006841002000B583B0019000F0BBFB019803B05DF804EBFFF7D9
S2242116206DBA00BF30B506240D480E4A03680E4D85B0591CCDE901250C4B01604FF4007229
S2242116400B490C48009406F0A9FD0B4B186008B105B030BD014605B0BDE8304000F094BB13
S224211660C479002060A10220DC410020C47206001C7006000D160100D841002000B583B074
S224211680019000F083FB019803B05DF804EBFFF771BA00BF30B506240D480E4A03680E4D33
S2242116A085B0591CCDE901250C4B01604FF480720B490C48009406F071FD0B4B186008B16A
S2242116C005B030BD014605B0BDE8304000F05CBBC479002060A902204C420020C8720600B4
S2242116E00C7006007D1601004842002000B583B0019000F04BFB019803B05DF804EBFFF7CF
S2242117005DBA00BF30B505240D480E4A03680E4D85B0591CCDE901250C4B01604FF48072D9
S2242117200B490C48009406F039FD0B4B186008B105B030BD014605B0BDE8304000F024BB12
S224211740C479002060AD0220BC420020CC7206005C700600ED160100B842002000B583B09D
S224211760019000F013FB019803B05DF804EBFFF73FBA00BF30B506240D480E4A03680E4DF4
S22421178085B0591CCDE901250C4B01604FF480720B490C48009406F001FD0B4B186008B1F9
S2242117A005B030BD014605B0BDE8304000F0ECBAC479002060B102202C430020D072060053
S2242117C04C7006005D1701002843002000B583B0019000F0DBFA019803B05DF804EBFFF75D
S2242117E02FBA00BF30B502240D480E4A03680E4D85B0591CCDE901250C4B016080220C4968
S2242118000C48009406F0CAFC0B4B186008B105B030BD014605B0BDE8304000F0B5BA00BFA6
S224211820C479002060B502209C430020D472060074700600CD1701009843002000B583B0F1
S224211840019000F0A3FA019803B05DF804EBFFF703BA00BF30B505240D480E4A03680E4DC1
S22421186085B0591CCDE901250C4B01604FF480720B490C48009406F091FC0B4B186008B189
S22421188005B030BD014605B0BDE8304000F07CBAC479002060B702200C440020E4720600E7
S2242118A0D87206003D1801000844002000B583B0019000F06BFA019803B05DF804EBFFF79C
S2242118C0D9B900BF30B505240D480E4A03680E4D85B0591CCDE901250C4B01604FF480729D
S2242118E00B490C48009406F059FC0B4B186008B105B030BD014605B0BDE8304000F044BA13
S224211900C479002060BB02207C440020F4720600E8720600AD1801007844002010B5694843
S22421192082B005F03DFB684B1860002800F09F8000240821654B8020654A009405F074FD7A
S224211940644B01461860002800F0958000240821614B8020614A009405F066FD604B0146A4
S2242119601860002800F08A80002408215D4B80205D4A009405F058FD5C4B014618600028FF
S2242119807FD0002404215A4B14205A4A009405F04BFD594B01461860002875D0002408211E
S2242119A0564B8020564A009405F03EFD554B0146186000286BD0002203241146524B01203C
S2242119C0009405F031FD514B01461860002861D0002408214E4B80204E4A009405F024FDAE
S2242119E04D4B01461860002857D000240C214B4B4FF480704A4A009405F016FD494B0146F6
S224211A00186000284CD000240821474B8020474A009405F009FD464B01461860002842D0BB
S224211A20002203241146434B0120009405F0FCFC414B01461860002838D0002408213F4B5E
S224211A4080203F4A009405F0EFFC3E4B0146186078B3002408213C4B80203C4A009405F0CD
S224211A60E3FC3B4B0146186030B302B010BD014600F08AF95CE700F087F967E700F084F992
S224211A8072E700F081F97CE700F07EF986E700F07BF990E700F078F99AE700F075F9A4E780
S224211AA000F072F9AFE700F06FF9B9E700F06CF9C3E700F069F9CCE702B0BDE8104000F07C
S224211AC063B900BF944D0020904D0020D86B0020286C0020D46B002084670020D46700202B
S224211AE0806700200C5200205C5200200852002080700020D07000207C70002024710020C2
S224211B0074710020207100202C70002028700020B84D0020084E0020B44D0020DC5A002063
S224211B202C5B0020D85A002080560020D05600207C560020306700202C6700204049002045
S224211B40904900203C490020EC4400203C450020E844002000B583B0019000F017F9019872
S224211B6003B05DF804EBFFF7DDB800BF30B502240D480E4A03680E4D85B0591CCDE90125FA
S224211B800C4B01604FF480720B490C48009406F005FB0B4B186008B105B030BD014605B0DB
S224211BA0BDE8304000F0F0B8C479002060BF0220787500202C73060080700600551B01009B
S224211BC074750020FFF7AABE00B583B0019000F0DDF8019803B05DF804EBFFF7CDB900BF6F
S224211BE030B506240D480E4A03680E4D85B0591CCDE901250C4B01604FF480720B490C4822
S224211C00009406F0CBFA0B4B186008B105B030BD014605B0BDE8304000F0B6B8C47900205A
S224211C2060C30220B07700207875060068750600C91B0100AC77002000B583B0019000F08B
S224211C40A5F8019803B05DF804EBFFF7D5B900BF30B506240D480E4A03680E4D85B0591CC2
S224211C60CDE901250C4B01604FF400720B490C48009406F093FA0B4B186008B105B030BD0D
S224211C80014605B0BDE8304000F07EB8C479002060C7022020780020887506007C7506008F
S224211CA0391C01001C78002000B583B0019000F06DF8019803B05DF804EBFFF723BA00BF04
S224211CC030B509240D480E4A03680E4D85B0591CCDE901250C4B01604FF4A0720B490C481E
S224211CE0009406F05BFA0B4B186008B105B030BD014605B0BDE8304000F046B8C47900205A
S224211D0060CF0220907800208C75060040700600A91C01008C78002000B583B0019000F014
S224211D2035F8019803B05DF804EBFFF70DBA00BF30B506240D480E4A03680E4D85B0591C18
S224211D40CDE901250C4B01604FF400720B490C48009406F023FA0B4B186008B105B030BD9C
S224211D60014605B0BDE8304000F00EB8C479002060D40220007900209C7506009075060008
S224211D80191D0100FC78002000BE704738B5164C4FF0FF31206805F0D3FD012803D00021B5
S224211DA02068FFF7F1FF114B1A7802B138BD01220F4D1A70FFF706FF2B68013B2B60002B70
S224211DC0F4D00023206819461A4605F0B7FB0128F2D000212068FFF7D7FF2B68013B2B604E
S224211DE0002BEED138BD00BF707900206C790020C479002038B500231E4D1F4C01214FF469
S224211E0080701E4A2B60237005F058FB1C4B186058B3FFF75FFBFFF73DFCFFF703FC00F090
S224211E2091F8FFF7C7FBFFF74BFFFFF7A3FCFFF769FCFFF787FBFFF7D5FCFFF797FE00F051
S224211E40F1F8FFF775FFFFF703FF00F043F800F021F9FFF7C5FEFFF735FDFFF7FBFC00F01E
S224211E60A9F806F011FB002038BD0146FFF78CFFCFE700BFC47900206C79002074790020D8
S224211E8070790020802330B4034D044C05600C60136030BC704700BFC87D0020C879002080
S224211EA0802330B4034D044C05600C60136030BC704700BF347E0020C87B002000B583B012
S224211EC00190FFF763FF019803B05DF804EBFFF74BB900BF30B506240D480E4A03680E4D28
S224211EE085B0591CCDE901250C4B01604FF480720B490C48009406F051F90B4B186008B146
S224211F0005B030BD014605B0BDE83040FFF73CBFC479002060DC0220A47E0020AC750600D3
S224211F20A0750600BD1E0100A07E002000B583B00190FFF72BFF019803B05DF804EBFFF727
S224211F406DB900BF30B507240D480E4A03680E4D85B0591CCDE901250C4B01604FF4A07260
S224211F600B490C48009406F019F90B4B186008B105B030BD014605B0BDE83040FFF704BF04
S224211F80C479002060E00220147F0020D8760600247006002D1F0100107F002000B583B0D7
S224211FA00190FFF7F3FE019803B05DF804EBFFF793B900BF30B506240D480E4A03680E4D70
S224211FC085B0591CCDE901250C4B01604FF480720B490C48009406F0E1F80B4B186008B1D6
S224211FE005B030BD014605B0BDE83040FFF7CCBEC479002060E50220847F0020E87606003D
S224212000DC7606009D1F0100807F002000B583B00190FFF7BBFE019803B05DF804EBFFF7B8
S2242120208DB900BF30B505240D480E4A03680E4D85B0591CCDE901250C4B01604FF4006211
S2242120400B490C48009406F0A9F80B4B186008B105B030BD014605B0BDE83040FFF794BE05
S224212060C479002060E9022018800020F8760600EC7606000D2001001480002000B583B014
S2242120800190FFF783FE019803B05DF804EBFFF7FBB900BF30B506240D480E4A03680E4D97
S2242120A085B0591CCDE901250C4B01604FF4A0720B490C48009406F071F80B4B186008B145
S2242120C005B030BD014605B0BDE83040FFF75CBEC479002060090320888000200877060081
S2242120E0FC7606007D2001008480002000BEFEE71EF0040F0CBFEFF30880EFF309800149D2
S22421210008470000952101000F4B1968EFF309821EF0100F08BF22ED108A22E9F04FEFF382
S2242121200B8342F8043D0A604FF0500080F31188BFF34F8FBFF36F8F06F06AFB4FF0000091
S22421214080F3118800F002B8D47B0120074801680A6802CA81F30B88B2E8F04F1EF0100F30
S22421216008BFB2EC108A82F309887047D47B012010B5EFF31184502383F3118806F038FB26
S22421218018B14FF08052024B5A6084F3118810BD00ED00E008B5836913F8023C022B02D09D
S2242121A0032B04D808BDBDE80840FFF7CFBF40F20541024B024A034804F03EFCCC770600E6
S2242121C08C780600E077060070B440F8203C4FF080756FF002040346084E283122F0010214
S2242121E040F80C6C40F8045C40F8244C40F8082C43F8481D184670BC704700BFED200100AF
S22421220008B5EFF31181502383F311880A4A13680133012B136000D008BD084A084B116098
S2242122205B68C3F30803002BF6D040F2F641054B054A064804F000FCF8800020F480002091
S22421224000ED00E00878060078780600E0770600094A08B513683BB1013B13601BB9074B66
S2242122601B6883F3118808BD40F2FF41044B054A054804F0E1FB00BFF8800020F4800020C9
S2242122805078060064780600E077060000B3194A00B5938918B2002899B21ADBBFF34F8F62
S2242122A030BFBFF36F8F62B6BFF36F8F72B600280CDA4AF202500F4AB2F8FE33A2F8FE03FE
S2242122C09BB243F425439181A2F8FE335DF804FB70474AF2025E4FF0000CB2F8FE33A2F8A8
S2242122E0FEE39BB243F42543A2F80CC0A2F8FE33D4E700BF00E0014008B572B606F010F93B
S2242123000120FFF7C3FF62B6BDE8084006F010B90D4B0E4A1B68A2FB03239B09013BB3F180
S224212320807F0FD24FF0E0224FF0F00C0020072110B4074C536184F823C05DF8044B906114
S22421234011617047704700BF888B0020D34D621000ED00E0F02208B50B4B83F82220FFF74E
S224212360D7FF0A4A536B43F04043536362B6BFF36F8FEFF3148C2CF0040C8CF31488BFF3A0
S2242123806F8F02DF00BEFDE700ED00E000EF00E0EFF30383103B5BB2002B05DB03F1604398
S2242123A003F5614393F80033704700BF10B590F8221090F824308AB0042904468DF8043062
S2242123C08DF8061022D00F290CBF8A238B2320468DF8073000F0B6FDD4E90321238D521A2A
S2242123E0000B042B03928DF805001AD0052B13D0032B0DD040F2DC53ADF80830E3690920A3
S22421240001A9069300F01CFB0AB010BD8A23DEE70023ADF80830F1E740F2DF53ADF808303A
S224212420ECE740F2DE53ADF80830E7E7018D8A22012940F2DC5308BF002310B58AB08DF862
S2242124400720428C90F824C0D1B204468DF804C08DF80620ADF8083000F074FD0346E26962
S2242124601B0B0A2001A906928DF8053000F0E8FA0AB010BD90F82420054B33F812309BB2BB
S224212480022B1DBF036CB3F85E0080B200207047A489002090F82420044B33F812309BB26A
S2242124A0022B1CBF036CA3F864107047A489002090F82420054B33F812309BB2022B1DBF8D
S2242124C0036CB3F86C0080B200207047A48900202DE9F0474FF00009036C0446B3F84010B1
S2242124E0B3F84260B3F846C0B3F84870B3F84A50B3F830E05A8E92B23240DE8EB3F83880E8
S22421250012F0100F1FFA88FAB3F83A80A0F82290A0F828900DD04DF660026121A3F84220D9
S2242125205A8E22F030021204120C5A866184BDE8F08712F0200F03D04DF650026221EDE744
S22421254089B21FFA8EFE01EA0E0111F4807F11D14E051ED5ADB21FFA88F805EA08086FEAFF
S22421256008020221C2F30902A3F84A204184A0F82880DCE71FFA8CFCB6B20CEA0606F2433B
S2242125800121C2F30902A3F8462041840685BDE8F0878D050CD4160418D415052CD45706D7
S2242125A01BD54DF630014522A3F842104284BEE7BFB207EA0A086FEA08020321C2F3090217
S2242125C0A3F848204184A0F82880B0E745F670014122A3F842104284A9E7560411D4D504CC
S2242125E014D4080417D48A04A1D54DF6FF711322A3F8401062849AE700F0C6FB4423638499
S22421260095E700F081FC4223638490E700F0BCFB432363848BE747F6FF711122A3F84010B7
S224212620628484E7024B00280CBF18460020704700000940026C538E23F480431B041B0CF6
S22421264053867047026C538E23F480531B041B0C53867047026C538E23F400631B041B0CA6
S2242126605386704749F67002036CA3F8422070474CF67002036CA3F8422070474DF2700248
S224212680036CA3F84220704700283BD180223D4B1881A3F86020A3F87000A3F87200A3F82C
S2242126A07400A3F87600A3F87800A3F87A00A3F87C00A3F87E00A3F88000D8861887588720
S2242126C018865886A3F84600A3F84800A3F84A001A88002022F010021204120C1A801A8859
S2242126E022F020021204120C1A801A8822F040021204120C1A801A8822F001021204120C03
S2242127001A807047002280211F4B00201A81A3F86010A3F87020A3F87220A3F87420A3F82D
S2242127207620A3F87820A3F87A20A3F87C20A3F87E20A3F88020DA861A875A871A865A8668
S224212740A3F84620A3F84820A3F84A20198821F010010904090C1980198821F020010904EC
S224212760090C1980198821F040010904090C1980198821F001010904090C1980A3F80221AA
S224212780704700BF000009400010114010B50446FFF77AFFACB9114B5A68110517D45A682F
S2242127A0C2F3C020120515D4EFF31081012282F310885A6842F400625A605B6881F31088D8
S2242127C010BD012C40F2E25008BF002010BD40F2DC5010BD4FF4BC6010BD00BF0040084023
S2242127E0EFF30383103B094A5BB2C03352F823106FF3104142F8231052F82330044B1B8881
S2242128009BB2012B00D0704700F046BB00600040A4890020EFF30383103B064A5BB2C033B1
S22421282052F823106FF3104142F8231052F82330704700BF00600040EFF30383103B064A1F
S2242128405BB2C03352F823106FF3104142F8231052F82330704700BF00600040EFF303839A
S224212860103B064A5BB2C03352F823106FF3104142F8231052F82330704700BF0060004047
S2242128801D4B90F800C033F81C309BB2012B01D00020704710B592B0CDE9031205928022BF
S2242128A04FF0000E15498DF83B2002910A21CCEB0C129200ADF826E09646447800F10C03FF
S2242128C011FB04210E4A8DF828C01144069104EB84010EEB410E03CB42F80E0072446046C2
S2242128E051601481FFF79EFE034601A8119300F0C3FA12B010BD00BFA4890020A12D01002D
S224212900B08200201D4B90F800C033F81C309BB2012B01D00020704710B592B0CDE9031225
S224212920059280224FF0000E15498DF83B2002910A21CCEB0C129200ADF826E09646447845
S22421294000F10C0311FB04210E4A8DF828C01144069104EB84010EEB410E03CB42F80E009D
S2242129607244604651601481FFF75CFE034601A8119300F081FA12B010BD00BFA4890020A3
S224212980A12D0100B082002090F803C0BCF1090F21D910B592B003918021104B104C53F8A8
S2242129A03C30049202934378007803EB8C03293B5B00DBB2E35C0592ADF826308DF83B10BD
S2242129C08DF82800FFF72EFE034601A8119300F053FA12B010BD0020704700BF200A0020C0
S2242129E0A078060090F803C0BCF1090F22D910B592B003918021104B104C03EBCC035B6815
S224212A00059202934378027803EB8C035B00513BDBB2E35C1046ADF826308DF828208DF85C
S224212A203B10FFF7FFFD034601A8119300F024FA12B010BD00207047200A0020A0780600C1
S224212A402DE9F0478E46394DDFF8F4A0B5F80080887108EBC80C0AEB8C0C0F46441EBEE867
S224212A600F00ACE80F00BEE80F00ACE80F00DEF8003046464FEAC809CCF800300C2C14D872
S224212A80DFE804F00713071F1F07074134340707070000223978264B09EB080053F821304E
S224212AA00AEB8000114698472E88224B0136A3FB0623DB0803EB8303A6EB43032B80BDE8A6
S224212AC0F08739781C4B33F811309BB2012BECD1174B1A4C09EB080053F82130002254F8D1
S224212AE021100AEB800098472E88DEE73A78104B09EB080053F82230796900220AEB800091
S224212B0098472E88D1E73A780B4B33F812309BB2012BCAD1064B09EB080053F822307969ED
S224212B2000220AEB800098472E88BEE76081002034880020CDCCCCCCA4890020308400206F
S224212B403888002038B53C4B33F810309BB2012B13D03A4C04F1140554F8040B04F0C2FF90
S224212B60AC42F9D1364C04F1280554F8040B04F0B9FFA542F9D1002038BD324B324C18688B
S224212B8004F0B0FF314B04F12805186804F0AAFF2F4B186804F0A6FF2E4B186804F0A2FF90
S224212BA02D4B186804F09EFF2C4B186804F09AFF54F8040B04F0A4F9AC42F9D1284B294C56
S224212BC0186804F08FFF04F1280554F8040B04F097F9AC42F9D1244B244C186804F082FF40
S224212BE004F1280554F8040B04F08AF9AC42F9D11F4B204C186804F075FF04F1280554F8D7
S224212C00040B04F07DF9A542F9D11B4B1B4C186804F068FF04F1280554F8040B04F070F9E2
S224212C20A542F9D1164B186805F026FB154B186805F022FB8DE700BFA48900207082002042
S224212C40848200206C810020CC810020988100209081002064810020788100207081002015
S224212C609C81002044820020948100201C82002068810020A48100207C810020F481002018
S224212C8074810020A081002000B583B0019151B10023094A01A952F8202010681A4604F0C6
S224212CA04DFC012803D0FF2003B05DF804FB002003B05DF804FB00BFB00A002010B50024DA
S224212CC084B00191039451B10D4A234652F8201003AA086801A904F0FDFC012802D0FF2067
S224212CE004B010BD03980028FAD04FF08052054B5A60BFF34F8FBFF36F8F204604B010BD5E
S224212D00B00A002000ED00E070B5468C044646BB4FF4897306600384442004F04DF8054690
S224212D2050B3442221464BF073FD63696BB166B9198805F12C02A9855988E98599882986D9
S224212D40D988698619896A61A98605F051FF034629460120EB61FFF797FF044678B920468A
S224212D6070BD314600F0EEF830B100224FF48973092E22602384CFD9FF24204670BD284645
S224212D8004F0BEF8204670BD10B5044600F0C6F8204600F0CDF82046BDE8104000F0B4B841
S224212DA030B5038D8BB013B1062B27D0FF23ADF808304FF4124C90F8242043698DF8042090
S224212DC01988ADF806C0ADF810100E49C46951F822505A880820ADF812209A8801A9ADF86B
S224212DE01420DA88ADF816201B89521B8DF8053003920694FFF724FE0BB030BD0123ADF8B9
S224212E000830D6E7EC82002029B9184B90F8242023F812107047002270B490F82400144CB2
S224212E2000EB400303EBC30389B204EBC303B3F806C024338C4504D00132062AF7D170BCD6
S224212E4070474FF0D80C0A25084902EBC20231F81030084E013B21F810300CFB00F000EB0B
S224212E608202A318A6505D6070BC704728840020F0820020FFFF00F0438C33B9054B90F878
S224212E80242033F81230282B01D0FFF73DBFD520704700BF2C8400202DE9F843EFF3038252
S224212EA00027164EDFF85C803388154903EB031308EB8305103A52B2384685F8247051F8F0
S224212EC022909C00FFF7AEFBD9F828302864EB63D9F824302846AB63FFF7FAFA29460120C1
S224212EE048F80470FFF7EAFE338801339BB20F2B14BF33803780BDE8F88300BF30880020B0
S224212F00FC8900203484002010B50446FFF7AAFB2046BDE81040FFF78DBB00BF10B50446FD
S224212F20FFF7ACFB2046BDE81040FFF793BB00BF10B50446FFF79CFB2046BDE81040FFF783
S224212F4081BB00BF09290FD810B541B10446FFF7A1FA2046FFF7ACFA00F4704010BDFFF73C
S224212F6089FA00F4704010BD0020704710B54FF0640E0EFB00F0104B4FF0000C03F15A02FB
S224212F800E4C03440903104402E00A33834211D05A89012AF9D11A8A22409142F5D1A3F833
S224212FA00AC0A3F80CC0A3F810C0A3F812C00A338342EDD110BD00BFFC80002000F0FFFF0C
S224212FC0F8B53B4E0478054636F814300F469BB2012B08BF42700622364B8A7053F82430D3
S224212FE033B136F814309BB2012B04D00020F8BD40F2DC50F8BD2046FFF714FB68782E4A5D
S22421300004EB440300EB430302EB0313DB8865009BB2082B3DD02ED8022B3DD0032B35D157
S22421302084233B702B1900EB430302EB03131B899BB2802B27D0C02B14BF002302237B701C
S2242130402C4400EB440002EB001253889BB2322B28D009D80A2B22D0282B11D10123BB70A3
S2242130600023FB701846F8BD462B1ED0502B07D10423BB70F4E7FF2B08D189233B70D1E798
S2242130800023BB70ECE701237B70D9E700233B70C8E78F233B70C5E780233B70C2E7062374
S2242130A0BB70DDE70223BB70DAE70323BB70D7E7A4890020A0890020C8830020F0B50446EB
S2242130C093B00078FFF762FBB0B9164A23780546D054154F207837F81060B6B2012E10D0D7
S2242130E00026124B43F82060FFF72CFD2846237827F8136013B0F0BD4FF4BC65284613B0AD
S224213100F0BD8DF82800FFF78DFA0221119001A8FFF77AFE9DF828003146FFF727FF2078EF
S224213120DEE700BFA8890020A4890020A0890020F0B504461646124F027883B037F8120064
S2242131400D4680B202280CBF637863701A46204601A9FFF735FF9DF80630032B03D040F289
S224213160DC5003B0F0BD324629462046FFF70CFC0028F6D0D528F2D140F2DD50F1E700BFAE
S224213180A4890020F0B504461646124F027883B037F812000D4680B202280CBF63786370FA
S2242131A01A46204601A9FFF70BFF9DF80630032B03D040F2DC5003B0F0BD324629462046A2
S2242131C0FFF710FC0028F6D0D528F2D140F2DD50F1E700BFA48900202DE9F04182B00E4609
S2242131E0174601A91A4698460446FFF7E9FEC0B99DF80630032B14D13388B188F28805462D
S2242132007088A3811B06E08121822046394684F8018062820BD4FFF775FBD5280BD0FF283D
S22421322001D140F2DC55284602B0BDE8F081FFF727FBD528F3D140F2DD55284602B0BDE8FB
S224213240F08100BFD0E901210B6810B523F0705323F0030343F000730446D0680B600B690F
S22421326023F00C030B6120B1836800681B6998476268936823B19A681868136998476268D3
S2242132800023D279A168D2070A61C4E90333C4E9053310BD70B5836884695969057FC1F3C1
S2242132A00521A14228BF2146022D35D0012D0CD14269002943D0944602EB4106B3F81CE0B6
S2242132C02CF802EBB445F9D10FE0DDB94269002935D0541800E083681B7F02F8013BA242AB
S2242132E0F9D14269057F8469836801FA05F5641A2A44C0E905244FF4803259695A6104B9F5
S224213300446170BD426901FA05F5641A1544846145610029F3D0EEE746690029EFD03246E3
S2242133204FEA810C06EB8105DC6942F8044BAA42FAD184696644641A46618461DBE7C0E999
S2242133400524DCE730B5436A83B004460A466D468BB193E8030085E803001A71A16A18462B
S224213360226A19609047636A1BB195E8030083E8030003B030BD2B46EFE700BFF0B5EFF397
S2242133800383103B384A5BB203F1C00152F8214036486FF3104450F8230042F8214052F8C3
S2242133A02130C668AEB3826805695369047FC3F30563C3F12003AB4228BF2B46022C36D002
S2242133C0012C1BD1002B4BD0B44600213CF802EB01318B42A2F818E0F8D103FA04F4ED1AD6
S2242133E03444C0E903450123516953612DB9C5605369C3F30563102B14D8F0BD3CBB7BB3CE
S2242134003146F71811F801CB8F4282F818C0F9D1E3E70369002BF0D182685369C3F3056358
S224213420102BEAD9BDE8F0400121FFF78BBF002BDCD03446002154F8047B01318B429761FD
S224213440F9D1ED1A06EB8303C0E90335CBE703FA04F43444ED1AC0E90345002BC6D0C2E79C
S224213460C0E90365C2E700BF00600040FC89002010B5EFF303830021114A103B5CB252F81C
S224213480240083685A685960920111D443690BB1FFF700FFFFF7D6FE0A4A04F1C00352F887
S2242134A023106FF3104142F8231052F8233010BD1A6861F359621A60FFF744FFECE700BF53
S2242134C0FC890020006000404369C2699A4210D0C268A2B190F820100F290BD8072998BF17
S2242134E0D25C81688ABF32F813200A718A80013343617047816852F823204A60F7E78168EE
S2242135004A60F4E730B5836A85B004468C4601ADABB193E8070085E807006268184611782C
S22421352083F804C0E26A19609A60636A9847A36A1BB195E8070083E8070005B030BD2B46D9
S224213540EBE700BF2DE9F04187681E463B789DF818C013F0400340F08980C0E903128846EF
S224213560416880F820C00446C0E90533C6614869F0B1BCF10F0FA66164D90225436819681E
S224213580CB7865F30513CB7002258B7865F383038B70B3B2CB818A60002A76D083680068B6
S2242135A05B68984700284BD1616894F820C0A7680D6925B3BCF10F0F66614DD902226B68BE
S2242135C01968CB7862F30513CB700222CB78B6B262F38303CE81CB70C1F80480B8F1000F30
S2242135E05AD03B78AA686FF34513286852683B70904728BBD4E9013794F820C01D69FB7AF1
S224213600BCF10F0FDAB23B8A9BB232D90CF1010C22F040024FEA9C0CACF1050C42F02002CF
S22421362023F4706343EA0C2C1FFA8CFCFA72A7F810C0002D37D000203B7843F060033B7051
S224213640BDE8F081BCF1070F1BD841680968CD7863F30515CD7097E7BCF1070F13D86B686D
S2242136601968CB786FF30513CB70AEE70820BDE8F081BCF1070F94BF42F0400202F09F02BB
S224213680CEE701257AE7012299E78B7862F383038B701C4B8B6081E7DBB268F38303CB70E9
S2242136A0194B4B609DE7EFF31087012686F31088A2682046137843F040031370FFF704FFB3
S2242136C0FFF702FF6368114A93F9023003F1C00152F8210065F3104042F8210052F821203B
S2242136E0BFF35F8F03F01F025B099B0003F16043964003F56143C3F880611E6087F31088BC
S22421370028469DE7AC890020B08900200060004010B49DF8044001945DF8044BFFF712BFA6
S2242137202DE9F04F044608780F6900F5800303F58D531B020D4685B003F10408002F00F0B8
S22421374027814FF00062796838680B681A60C3F80880BB681B6898470646002840F014818B
S2242137606B6973B1D3E901124FF4002618680B6812681E60C3F8048090470646002840F04E
S2242137804F8128782A6900F5800303F58D531B020021AE6965606662EE69A360C4E90A16A7
S2242137A06F7A002F40F00B81982608214FF0100E6B7B95F80BC01B0343EA4C0395F80AC09C
S2242137C043EA0C030AB141F0B0062A6A1178002940F0FC80012101FA00F0810740F0288185
S2242137E092F8018092F803C04FEA481126EAC815907841EA48011679294300FA0CF023F04C
S22421380070034FEA0C1C01911EB1022E14BF2026302655792DB1012D14BF4EF0010E4EF076
S224213820030E157A05F003054CEA85052B4395790295002F40F0C680917A92F80980D77ADE
S22421384043F460430391EFF3108A012585F310886168DFF8F89191F800C0D9F804B0CCF16E
S224213860130C05FA0CFC2BEA0C0CC9F804C0D9F804C08AF310884FF0000C4FF010091FFAE4
S22421388083FB9DF80410A3685FFA80FAD878606883F803C0197083F801A09E70D2795FFA50
S2242138A08EFE9A72039A83F80C805A73029A9F7383F80FE0A3F810B083F8202083F821907F
S2242138C090F90230634580F284805C4A90F90130002B26DB417903F160400901C9B200F595
S2242138E0614080F80013564903F1C00042F8234051F820506FF3104541F8205051F82010F4
S224213900BFF35F8F01205909890003F01F0301F1604101F5614100FA03F3C1F880310B60D0
S2242139206068017A90F9043046480901444DC618C9B286F8001303F1C00142F8234055F8AF
S22421394021606FF3104645F8216055F82110BFF35F8F012103F01F055B099B0003F160435D
S22421396003F56143A940C3F8801119600026636893F90310DB7908441B01DBB280F8003353
S224213980314B42F821402360304605B0BDE8F08F4A69002A3FF4FCAE4FF4002051680B68CF
S2242139A01860C3F80480936810681B689847064600283FF4E6AE304605B0BDE8F08F902615
S2242139C08E46F5E60027B84603973CE746F0010606E7817903F160400901184AC9B200F59C
S2242139E0614080F80013164903F1C00042F8234051F820606CF3104641F8206051F8201015
S224213A00BFF35F8F03F01F015B099B0003F160438D4003F56143C3F880511D60606855E7C1
S224213A20BB6838681B6A9847304605B0BDE8F08F002F7FF4D5AE43F08003D1E6FC890020B3
S224213A400060004000E100E0495053520040084008B5EFF30383103B1E4A5BB203F1C0017F
S224213A6052F821006FF3104042F8210052F82120194A52F82300D0E9063293420FD002693D
S224213A802AB390F820100F291CD80729816895BF09798988D15422F8131001338361FFF7CF
S224213AA013FDD0E906239A4200D008BD436893F90330012203F01F0008495B09824041F82E
S224213AC0232008BD8168496842F82310E5E782685268E2E700600040FC89002000E100E072
S224213AE0EFF30383103B064A5BB2C03352F823106FF3104142F8231052F82330704700BFED
S224213B0000600040EFF30383103B344A5BB203F1C00152F821006FF3104042F8210052F82A
S224213B2021202F4A52F823008268D278920704D54268527A012A00D07047012230B4590901
S224213B40284C03F01F03203102FA03F344F82130BFF34F8FBFF36F8F436893F90230002B12
S224213B6032DB590903F01F0302FA03F3203144F82130BFF34F8FBFF36F8FD0E90114237822
S224213B8091F902106FF386130029237018DB134B01F1C00453F824506FF3104543F8245080
S224213BA053F82430BFF35F8F4B099B0001F01F0103F160438A4003F56143C3F880211A60CD
S224213BC0012130BCFFF79EBC8268012130BC13786FF386131370FFF795BC00BF00600040BA
S224213BE0FC89002000E100E070B5EFF30384354B103C64B253F82460736893F90230002B36
S224213C0048DB012030495A0903F01F03203200FA03F341F82230BFF34F8FBFF36F8FD6E97D
S224213C20013293F902301178002B6FF38611117019DB264A03F1C00152F821506FF31045B4
S224213C4042F8215052F82120BFF35F8F03F01F025B099B0003F16043904003F56143C3F897
S224213C6080011860B2680021D378D1701A07DDB223D4EB0714D405F01405142D18D0134B48
S224213C80C03453F824206FF3104243F8242053F8243070BDB26813786FF386131370E2E790
S224213CA00421304605F01405FFF72CFC142DE6D108213046FFF726FCE1E705213046FFF70E
S224213CC021FCD6E7FC89002000E100E00060004030B5836B83B004460A466D468BB193E8D4
S224213CE0030085E80300E16B1A711846626B19609047A36B1BB195E8030083E8030003B05E
S224213D0030BD2B46EFE700BF10B4EFF30383103B4C4A5BB2C03352F823106FF3104142F813
S224213D20231052F82330EFF30383474A103B5BB252F823301A69117BC1F3000CC90724D408
S224213D4093F82C1093F82A00884212D093F82D0008B102294CD093F828000131D07093F8AD
S224213D602B2083F82C10013A83F82B205DF8044B7047196A69BB93F82E1000293BD05220A9
S224213D800121D07283F83010F0E793F82D10B1B193F8311099B9507999695A6A885493F8C9
S224213DA02E00D3E9081201390132C3E9081228B3522001221969C87283F83020D6E70024CE
S224213DC0012054211C6283F82F005DF8044BD172704793F82D00A8B193F83100D8B10129E1
S224213DE083F831C028D0FF2482F80AC0D470BDE75223D372BAE75423D372B7E754221B693B
S224213E00DA72B3E7586A9C690139245C0130C3E90810D470AAE7507999695A6A8854D3E924
S224213E200821013A0131012AC3E9082103D0FF241A69D4709AE71A692023FF249372D47056
S224213E4094E700BF00600040FC89002010B5EFF30383304A103B5BB252F823000269D37A99
S224213E606FF3C303D37290F82F308BBB90F82A1003F0FF0C90F82C3099421CD1036A5BB995
S224213E8090F82D1090F83040002914BF02210321BCB3D372FFF71CFFEFF30383103B1E4A1C
S224213EA05BB2C03352F823106FF3104142F8231052F8233010BD8BB190F82D4004F0FF01B0
S224213EC034B3022B10D190F829C04CF0010C0BE0F0230121D372FFF7FBFEDDE701290CBF00
S224213EE090F828C090F829C00021D17282F803C090F82B20013380F82C30531E80F82B30FB
S224213F00CAE7F023D372937803F0CF039370C1E78C46E9E7FC8900200060004070B50546A0
S224213F206B681F4C1B780E4684F828300121C82002F08AFD94F824306FF3000384F82430CA
S224213F4094F8243013F00103FAD16A681278012A02D1B2886385A2850023114981F824309C
S224213F6091F82430DB09FBD191F824300C4A43F0020381F8243092F824309807C3F34001E2
S224213F80F9D482F8221092F82430054943F0400382F8243091F824305B06FBD570BD00BF18
S224213FA0003008402DE9F047436893F91140002CC0F299805D4B650953F8253004F01F08C6
S224213FC023FA08F818F0010804F01F0622D1584A92F8223043F0020382F8223092F8223023
S224213FE09F07FBD5534BC03453F824206FF3104243F8242053F82430BFF35F8F0122AB00C4
S22421400003F1604303F56143B240C3F880211A604FF000084FF0000A454B80F808A09E7829
S2242140201D799F791C7A93F80AE093F80CC0DA8990F80890F6B2EDB2FFB2E4B25FFA8EFE54
S2242140405FFA8CFC92B2B9F1000FE6D14FEA1C1909EB89090CF00F0C0CEB490C5FFA8CFC6D
S2242140600CF1FF3CC1F810C0C2F3031C0CEB8C0C02F00F0202EB4C02D2B264324A613209B8
S22421408002EB820206F00F0606EB42062A0902EB820205F00F0505EB4205220902EB8202C5
S2242140A004F00F0404EB4204E4B24FEA1E128C6102EB82040EF00F0202EB4402D2B2CA604F
S2242140C0C7F3011202EB820207F00F07F6B2EDB207EB42070E604D608F60B8F1000F06D055
S2242140E00020BDE8F087650904F01F066FE793F822100F4A01F0FD0183F8221092F82230F3
S2242141009B07FBD401214368084893F911305A0903F01F03203201FA03F340F82230BFF327
S2242141204F8FBFF36F8F0020BDE8F08700E100E0003008400060004030B41F4D95F8244075
S224214140C4F30014844213D0002485F82E4095F82E40002CFBD195F824C0174C60F3041C7C
S22421416085F824C094F824C0CCF3001C8445F9D101280DD003F03F030F4943EA8212D2B202
S22421418081F82E2091F82E309A42FBD130BC7047094C94F82400C0F340108842EAD094F8E8
S2242141A0240061F3451084F8240094F82400C0F340108142F9D1DDE7003008402DE9F04F9B
S2242141C04A4B85B093F824206FF3000283F8242093F82420D207FBD4406891F800B0029013
S2242141E00869434A0130C4B2486991F804A0643891F808E091F818C0A2FB0B69C5B2087B9D
S22421420001950394A2FB0E67A2FB0015A2FB0A68A2FB0414A2FB0C160199A2FB01124FEA81
S224214220D90101EB8101ABEB41014FEAD90941EA0911C9B299704FEAD80101EB8101AAEB3F
S22421424041014FEAD80841EA0811C9B21971F90801EB8101AEEB410EF10801EB8101ACEB3F
S224214260410CE90801EB8101A0EB4100ED0840EA0510E108039D01EB8101A5EB4101E408B7
S224214280019D41EA0414D108FF08F60801EB81014EEA07174CEA0616A5EB4101D208C0B205
S2242142A007F03F07F6B241EA02129F71E4B21E72D2B2987202981C73DA81037873B10B4A78
S2242142C092F8243043F0010382F8243092F82430DB07FBD5002005B0BDE8F08F80684368B9
S2242142E0827841780078FFF727FFE8E700300840CDCCCCCC002370B50C464A694160C260C9
S2242143008A690372C0E904320546FFF707FE94F90FE0227BBEF1000F94F90DC0237C94F98D
S22421432011000BDBA17B154E09010EF16044C9B204F5614484F8001346F82E50BCF1000F14
S2242143400ADB0E4C12010CF16041D2B201F5614181F8002344F82C5000280ADB07491B015E
S22421436000F16042DBB202F5614282F8003341F82050034B00202B6070BD00BFFC8900207D
S22421438043545200EFF303830120084A103B5BB252F82310064A0872C03352F823106FF3C2
S2242143A0104142F8231052F823307047FC890020006000400022034610461A60704700BFCF
S2242143C00B0A10B41B01064C53FA81F154F821300020C3F340035DF8044B1370704700BF5E
S2242143E000080840090A490101F1804101F500214B68002013807047090A490123EA020C8B
S22421440001F180411A4001F5002142EA0C4200208A6070470123C8B283404AB91A040B0A80
S2242144205B0103F1804303F5002300209A6070479AB2F4E7090A490101F1804101F5002109
S22421444010B40C6802EA030C4CEA040C62EA030202EA0C0200205DF8044B0A60704700BFCE
S224214460090A490101F1804101F500214B680020C3F30F4313807047012310B44FEA112C6C
S2242144804FEA4C1C0CF1804C0CF5002CDCF80440C9B203FA01F18BB201EA1441C91AB1FAD2
S2242144A081F1490900205DF8044B1170704700BF090A490123EA020C01F180411A4001F5DC
S2242144C0002142EA0C420020CA607047012A14D04FF480300B0A5B0103F1804303F50023D5
S2242144E010B4CAB2DC6800FA02F22243120C120400205DF8044BDA6070470B0A5B0103F171
S224214500804303F50023D868C9B28A40024392B20020DA60704700BF2DE9F84F0388002BA6
S2242145203DD007464FF00008DFF8A4A040F202427B684FEAC80559198988002491424FF081
S2242145400109224E09D00134032C23D07B6836F8022B591989889142F5D15B5909FA04F284
S22421456003F0B853B3F1807F5FFA82FB19D09AF8BB341A42E7D0012002F036FB9AF8BB345C
S224214580012023EA0B0B8AF8BBB4013402F0FCFA032CDBD13B8808F101084345C6D8BDE838
S2242145A0F88F9AF8BB2409FA04F313425FFA83FBC9D1012002F018FB9AF8BB3401204BEA20
S2242145C0030B8AF8BBB402F0DFFABCE7FE78060000E00140F8B50446FFF79EFFEFF31082AD
S2242145E0012383F31088284E33681BB92749CB704023CB7033680133336082F3108823881B
S2242146007BB3626803F1FF3E1FFA8EFE02F108011F4C01EBCE0E08E0D2B21B0113448E45C5
S2242146200A4644F823001CD008311068928810F4803F4FEA1223EFD0130AD2B202EB031C51
S22421464054F82C701B01134420F480356FF310478E4544F82C700A4644F82C5044F8230045
S224214660E2D1EFF31082012383F31088336813B13368013B336033681BB980200349CB705C
S224214680C87082F31088F8BDF8890020000D08400008084008B5034B03600846FFF79AFF69
S2242146A0002008BD54524F5008B50846FFF792FF002008BD70B5012684B002AB68460C4606
S2242146C015460193ADF80060ADF80C100292FFF723FFEFF3108286F310881D490B681BB921
S2242146E040261C48C370C6700B6801330B6082F31088EA034FEA1423E4B219D41B01164AE6
S224214700234442F82350EFF31082012383F310880B6813B10B68013B0B600B681BB9802081
S2242147200C49CB70C87082F31088002004B070BD094A04EB031052F820601B016FF310468A
S22421474042F8206025F4803642F82060D7E700BFF8890020000D08400008084030B5836B5A
S22421476083B004460A466D46A3B193E8030085E80300E16B1A711846626B19609047A36BF1
S2242147801BB195E8030083E80300002384F82B3003B030BD2B46ECE730B4344B82B01B6A41
S2242147A0026903F00F2301930199019D137C90F82C409CB9C1F30321DBB2A1EB15618B406D
S2242147C09B0806D10823184602B030BC7047013BF8D05178C909FAD1B323D371002390F82C
S2242147E02640016880F8274080F82830846980F82B30036280F82D3080F82E3080F82F306E
S22421480080F830304B6AC46193F800C05C78BCF1010F0CBF0523042343EA4403DBB2D37086
S224214820537943F00103537191F90F30002B08DB012203F01F040E495B09A24041F8232062
S2242148400269BF23D37190F82C1001F0FF0339B10022134680F82C20184602B030BC70470E
S22421486002211846517002B030BC704700E0014000E100E090F808C0C0E90512BCF1010FCC
S22421488080F82A3008D10022436880F826C05B0080F8243080F82520002380F82930FFF74E
S2242148A07BBF00BF90F808C0C0E90512BCF1010F80F82A300AD10022436880F826C05B00D9
S2242148C043F0010380F8243080F82520012380F82930FFF761BF00BF2DE9F0434FF01F0C75
S2242148E05F27DF260269DFF89C9182F800C01770167006684FF0000E776AD6F804C03E796C
S2242149004FF0B30846F0E0061674FE785A4C46F0E0065674BE78594D360106F0700646F01A
S224214920080696703E787F78012E0CBF05260426CC450CBF4FF0F70C4FF0770C46EA4706E4
S224214940F6B2D67082F805C082F806E082F807804E7B91F911203601494BA718F6B287F86E
S224214960006302F1C00645F8220053F826706EF3104743F8267053F82660BFF35F8F4FF07C
S224214980010C5609B60002F01F0206F1604606F561460CFA02F2C6F8802132604E7B91F93F
S2242149A00F203601A718F6B287F8006302F1C00645F8220053F826706EF3104743F82670A0
S2242149C053F82660BFF35F8F5609B60002F01F0206F160460CFA02F206F56146C6F8802180
S2242149E032604E7B91F910203601A718F6B287F8006302F1C00645F8220053F826706EF3A2
S224214A00104743F8267053F82660BFF35F8F5609B60002F01F0206F160460CFA02F206F51D
S224214A206146C6F8802132604E7B91F90E2031011444C9B284F8001302F1C00145F8220090
S224214A4053F821406EF3104443F8214053F82130BFF35F8F53099B0002F01F0203F1604356
S224214A600CFA02F203F56143C3F880211A609F2203691A70BDE8F08300E100E0FC8900206F
S224214A800060004040420F0070B500250A78016002F5800202F51F62120202618A68426096
S224214AA00A7B0272CA6942630A6AC0E90E52EFF3108C012282F310880B78C3F109039A40B7
S224214AC00C4B5E6826EA02025A605B688CF31088FFF702FF084B80F82950C0E9075580F833
S224214AE02A50456180F82B50856180F82C50C360284670BD004008404349495210B483B03F
S224214B00EFF30383103B4A4A5BB2C03352F823106FF3104142F8231052F82330EFF3038386
S224214B20444A103B5BB252F8233093F82D20BAB99A69022A1A699EBF117941F040011171F4
S224214B40D969012917D00121D27CD2B28DF807209DF8072083F82D1003B05DF8044B7047BA
S224214B60DA69002AF8D0032A0ED0022A4ED0012A21D019690DE0117941F010011171117922
S224214B8041F008011171DEE719690A7942F040020A71C87C1A6A59698854D3E907210131FE
S224214BA0013AC3E90721002AD6D119690B7962F386130B71D0E793F82A1089B319681E4CDC
S224214BC091F90F10480901F01F0102FA01F1203044F82010BFF34F8FBFF36F8F4FF0040C6B
S224214BE01969C87940F08000C871087940F01000087108796FF3C300087181F801C048798F
S224214C006FF30000487183F82C20C2E719690A7942F010020A710A7942F008020A71B8E746
S224214C20082019694A7A02F0F7024A724870B0E700600040FC89002000E100E0EFF303837C
S224214C40103B384A5BB2C03352F823106FF3104142F8231052F82330EFF30383324A103BF8
S224214C605BB252F8232092F82730002B3AD192F82930002B35D1D36910B4002B44D1106990
S224214C80C179C0236FF3C711C17101E0013B02D0C179C909FAD11368224A93F9103003F1F8
S224214CA0C00152F821406FF3104442F8214052F82120002B09DB01215A091C4C03F01F0375
S224214CC0603201FA03F344F82230C3795DF8044B43F04003C3717047022909D192F830009D
S224214CE030B9704792F82610032992F82810F3D092F824C010690131013B80F812C082F864
S224214D00281082F827307047116AD2E90404645C013B01318474C2E90731002BB0D05DF866
S224214D20044B704700600040FC89002000E100E010B4EFF303832D4A103B5BB252F82330A9
S224214D4093F829201AB193F82720012A49D0DA69E2B11969CA79C0236FF38612CA7101E0E4
S224214D60013B02D0CA795206FAD4EFF30383103B1F4A5BB2C03352F823106FF3104142F810
S224214D80231052F823305DF8044B704793F82A10F9B14FF0010C1968164C91F90F1048092A
S224214DA001F01F0120300CFA01F144F82010BFF34F8FBFF36F8F1969C87940F08000C8711C
S224214DC004204870487962F30000487183F82CC0C0E7082219694B7A03F0F7034B724A701F
S224214DE0B8E793F83020002AB1D1B2E7FC8900200060004000E100E038B5EFF30383E02172
S224214E00424A103B5BB252F8230003695A7A5972D5065FFA82FC02F003042AD55A7851063D
S224214E2048D400240125016880F82B50DC71FFF753FD826990F826300262B32280F8283025
S224214E40036980F82C40C46180F82A402946DA71FFF784FCEFF30383103B2D4A5BB2C0337B
S224214E6052F823106FF3104142F8231052F8233038BD002CD5D11CF0080F0ED090F82B2037
S224214E80002A33D190F82910B322002914BF02210321DA71FFF762FCDCE790F82C20002A85
S224214EA0D8D01CF0040FD5D090F82B200121002AF0D1E7E7002CB4D15A78C2F38011520691
S224214EC0D9D5082480F82B105A7A016802F0F702496A5A725C700A78012A0CBF03220222EB
S224214EE0DA705A7942F001025A71B3E70022B32490F8261080F82C2080F828108169C2619D
S224214F00016280F82A200121DC71C3E7FC89002000600040F0B50346002591F902C01B4C22
S224214F204FEA8C0202F1804280F804C002F5C042D1E90270D2F80063C2F80053C3E9027016
S224214F4091F800E0BCF1000F83F805E004F80E500D79C87840EA05104D7940EAC510C0B210
S224214F6004F80E00C2F800630BDB4A78084812010CF16041D2B201F5614181F8002340F84B
S224214F802C30044A00201A60F0BD00BF00600040FC8900205543490090F904200E4B02F11C
S224214FA0C00153F821006FF3104043F8210053F82130BFF35F8F012153099B0002F01F0228
S224214FC003F1604303F5614301FA02F2C3F880211A600020704700BF0060004010B582B086
S224214FE0EFF30384184B103C64B253F82410174A4879135C03F00303032B11D0C03452F807
S22421500024306FF3104342F8243052F824308B6823B1CA68CDE900206846984702B010BD5A
S2242150208B6823B1CA68CDE9002068469847074BC03453F824206FF3104243F8242053F89B
S224215040243002B010BD00BFFC8900200060004050B1064B02689A4204D1D0E902320020D9
S2242150605A60704707207047012070475450470070B5836984B004468C46164601AD9BB141
S22421508093E8070085E8070083F804C0E26918469E601A6063699847A3691BB195E807008D
S2242150A083E8070004B070BD2B46EDE730B48C6E01342AB1944203D930BC013A1A6070473A
S2242150C0029D496B0078ED0754BF01F01F01C1F30441032808D9090981F001016AB9A1B9C0
S2242150E030BC02225A60704701F00C01A1F10401B1FA81F14909002AF1D0944201D8002942
S224215100EED130BC03225A607047002CE8D0F8E7002869D02DE9F04302F00306032E85B05A
S22421512064D004464068174603780D46062B02F00C0241D00AB1032B40D13B4B22689A42D0
S2242151404ED1A1684B6E0133AB4253D34FF0FF3C00232A46CDE902C3009702ABFFF7A6FF9A
S2242151604FF42542A168039BD1F800900A60D1F830805BB917F0080F0CBF02220422B80776
S22421518041D5029801EB8202D06410657A0619D50A6C012E42F480020A642FD028F4403854
S2242151A048EA0348BEB9002049F42543C1F830800B6005B0BDE8F083002ABED1052005B0DC
S2242151C0BDE8F083012E19D028F44038022F48EA0348E7D1F3B928F0407848EA0368E2E79D
S2242151E0072005B0BDE8F08301207047012005B0BDE8F083032005B0BDE8F083022FEAD1F3
S224215200002BE8D006E090191230029A01EB80004260BBE70120009002AB2A466068FFF7DC
S22421522045FF039BA168D6E754504700002800DA704710B400F160430901134CC9B203F5C8
S224215240614383F80013114B00F1C00144F8202053F821206FF3104243F8212053F8213014
S224215260BFF35F8F012243099B0000F01F0003F1604303F5614302FA00F0C3F8800118607C
S2242152805DF8044B704700BFFC89002000600040002900F0B7802DE9F041CE690C4684B035
S2242152A0002E00F0AB800546002800F0A7800B7A072B00F0A380092B00F0A0800A2B00F2C0
S2242152C09D800A78032A00F2CF80954B0168994200F013810123217C8B40C360C3F3090085
S2242152E0002800F007816069002800F0D78094F91220002AC0F207811B070CBF0123002359
S2242153002B74A369874AEB6100230A4412026C606861AA60AB61EFF3108C4FF0010E8EF322
S22421532010884FF00040804A277C116920FA07F721EA0701116112698CF310884FF4254270
S224215340A9680A60CB62CB638B6494F808C022784FEACC57D4F804C0032A0CF1FF3800F037
S224215360A180CF6203930861486188614B628B624FF0FF33B069F76AC861F069029308621E
S224215380C1F86880C1F86480002A40F0B88072464FEA5C03013B029338464FF0030C4B657A
S2242153A08B6588BB3378002B60D12078B378C3B196F803E002284FEA0E1343EA8E1300F0A3
S2242153C0A780032800F0A980BEF1000F14BF4FF0090E4FF0060E43EA0E0347EA034747F012
S2242153E0807700238B63C1F8883096F8213096F820E05B0743EA4E331F430AE0012004B070
S224215400BDE8F0810120704700238B63C1F8883020784FF4AA0301280B6402D10023CB64B1
S2242154200B654AF20150EB68CB604F63C1F830C00A6308602A46617C94F91200FFF7F6FEC5
S2242154402A4696F8221096F92400FFF7EFFE96F925002A4696F82310FFF7E8FE0020304B04
S2242154602B6004B0BDE8F0810520C8E796F801E020784FEA0E13022843EA8E1345D0032844
S22421548049D0BEF1000F14BF4FF0090E4FF0060E43EA0E031F4347F4807787E7012A7FF4B5
S2242154A02BAF24E747F48037CF6203930861486188614B628B624FF0FF330293B369F76A10
S2242154C0CB61F3690B62C1F86880C1F8648000230093E268686802ABFFF7E8FDDDE9023023
S2242154E0020642EA004242F0030CA968F06A42F0010254E740F27A5081E70E207FE7012AD1
S2242155003FF44AAFE3E70B2079E74FF0090EBFE74FF0090E5FE78646BAE786465BE700BF12
S2242155205450470090164000004008402DE9F041EFF30383103B234C5BB203F1C00C54F86A
S2242155402C109A006FF3104102F1804244F82C1002F5C042D2F800131B4951F82300416820
S2242155600978012909D043692BB1BDE8F04100221146FFF77DBDBDE8F0814FF42548D0E9FB
S224215580025E00262F68C5F8008047EA0807C5F808E0AE64EE642E652F6054F82C5066F3FF
S2242155A0104544F82C50D2F80023BFF35F8F5A0903F01F0301FA03F30449603241F8223058
S2242155C0D1E700BF00600040FC89002000E100E0F0B5012100243A4B80F83440394A83F8CE
S2242155E016148446186A11681B6AC0F3026201FA02F2354DC0F30270C3F30263C24099406E
S224215600AA4221FA03F157D9304802F5742202F23F2201F57423A0FB021203F23F23A0FBB1
S2242156200313920C2A4902F5F052A1F8E42043F6B851204644F2506440F6D8665425254F54
S2242156409B0C03FB07F7244A03FB01F1A2FB07E7BF08CCF81870A2FB017103FB04F48908EF
S224215660CCF808101D49A2FB047403FB01F1A408CCF82440A2FB01418908CCF82010184924
S22421568003FB06F603FB01F103FB05F55B00A2FB0676A2FB0575A2FB0343A2FB0112B60826
S2242156A0AD089B089208CCF80C60CCF81450CCF81030CCF81C20F0BD4FF4FB70F0BD00BFAF
S2242156C000E00140888B0020FF083D0083DE1B4300E07F4038AF0400ABAAAAAA80DE0F00AD
S2242156E0A0F7030030B5C36B83B004460A466D468BB193E8030085E803001A70216C1846B8
S224215700A26B59609047E36B1BB195E8030083E8030003B030BD2B46EFE700BF0B782DE97F
S224215720F0410446416053B9324A137613752046FFF74EFF08B9304B2360BDE8F0810027E9
S22421574001204B68DFF8ACE0A363CB68E76323648EF818000A7C91F91130284EDFF8A4C042
S2242157601201274D06EB0308D2B288F8002303F1C0024CF8234055F8228067F3104845F81E
S224215780228055F82220BFF35F8F5A09920003F01F0302F1604200FA03F302F56142C2F82F
S2242157A08031136098238EF814308B7C91F913201B01DBB2164486F8003302F1C0034CF8A8
S2242157C0224055F8231067F3104145F8231055F82330BFF35F8F53099B0002F01F0203F168
S2242157E0604300FA02F203F56143C3F880211A609DE700BF00E07F404E45504F00E100E0AB
S22421580000600040FC89002030B583B0EFF30383184919480A7C103B5CB250F82450100729
S224215820D1F880100AD4D3B21A061ED4DB061ED511F4405F14BF0721062100E00421284667
S224215840019151F0A9FB0D4A04F1C00352F823006FF3104042F8230052F82330284601997B
S22421586003B0BDE83040FFF73DBF0521E7E70721E5E700BF00E07F40FC89002000600040BD
S22421588038B5EFF30383103B1F4A5BB203F1C00152F821001D4C6FF3104054F8235042F898
S2242158A0210052F8213095F83440012C1DD0022C11D0174B93F8D430012B0CBF03240224A7
S2242158C051F05AFB002385F8343021462846BDE83840FFF707BF2C6B002CF1D02846BDE8C3
S2242158E038400022402151F05FBB2B6B002BE7D000220421284651F047FB00B938BD284660
S224215900BDE8384051F048BB00600040FC89002000E07F4030B490F90400204D82B001917A
S22421592000F1C00C009255F82C201D4C6FF3186245F82C2055F82C10C1F3080141F40041CF
S224215940E28992B28A42FBD008222274019A1AB3144A019C52F820104C60009919B152F8E5
S2242159602010009C8C6052F82010CA7802F0C002802A0FD002B9CB8118210020084B074A4C
S224215980197452F82C3043F0807342F82C3002B030BC70478B81EFE7024ADEE7006000400A
S2242159A000540040000000200620704706207047034693F904300549C03351F8232000205D
S2242159C042F0807241F82320704700BF00600040034693F90430054AC03352F82310002003
S2242159E06FF3186142F82310704700BF0060004010B40024154B90F9042053F82220D37856
S224215A00C1E9004413F0C0030BD04FF48074D089802BC0B2C1E902400DD000205DF8044B97
S224215A2070474FF48030D3895DF8044B9BB2C1E90203002070474FF4803093895DF8044B10
S224215A409BB2C1E900030020704700BF000000200346002270B493F90410084C01F1C00C2F
S224215A6054F82C50064E6FF3186544F82C50104646F821201A6070BC704700BF00600040BC
S224215A8000000020274AF8B5137805460C463BB3636893F9000000283FDB234E56F82030E4
S224215AA0002B3CD128712468B4B12346DA78194612F0C00F04D0DA89D2B242EA0222DA81AD
S224215AC08A78103312F0C00FF0D10822174B1A74182246F820401A74154B00202B60F8BD89
S224215AE001261670EFF3108086F31088114A116821F480011160126880F310880A4F194638
S224215B004FF4C072384648F0AAFE084B5F611E73636893F900000028BFDA0B20F8BD0820C8
S224215B20F8BD00BFB48900200000002000540040004354440040084010B590F904E01A4BC0
S224215B400EF1C00C53F82C20184C6FF3186243F82C2053F82C20C2F3080242F40042E389BC
S224215B609BB29342FBD00B46DA78184612F0C00F04D0DA89D2B242EA0222DA81807810339F
S224215B8010F0C000F0D108221824084B1A74084A42F82E10044A1C7452F82C3043F08073A3
S224215BA042F82C3010BD00BF00600040005400400000002003465B680020B3F8422893F87D
S224215BC04EC892B281F80DC093F84FC80A6081F80CC093F8502802F07F0282F07F0C0A61D0
S224215BE083F850C8704700BFF0B5076A06468BB067B3BE466C468C46BEE80F003D460FC42C
S224215C00BEE80F000FC49EE8030084E80300BCE80F000FC5BCE80F000FC59CE803008EE8D3
S224215C200300F36938469847336A6BB19C46EE46BEE80F00ACE80F00BEE80F00ACE80F0003
S224215C409EE803008CE803000BB0F0BD0F46E8E7437B10B49342446854D04FF0020CB4F872
S224215C6040386FF38A23A4F84038B4F840386CF30923A4F84038B4F8423803F4E063B3F598
S224215C80007FF8D1022384F8582842730373994215D0052916D0B4F840380A026FF38A2337
S224215CA0A4F84038B4F8403861F30923A4F84038B4F8423803F4E0639342F9D101735DF82A
S224215CC0044B70470222B4F840386FF38A23A4F84038B4F8403862F30923A4F84038B4F8C8
S224215CE0423803F4E063B3F5007FF8D1B4F8403843F48063A4F84038B4F842385B05FBD532
S224215D000173DCE7037BC2E79DF800C048B102280ED0002322F060421A4342EA8C720A60E1
S224215D207047074B03EA824242EA8C720A607047002BF6D0012B14BF00234FF00043E9E7D3
S224215D400000FC1FF0B518290D461746466883B02CD0731893F82038DB0934D1026805F1D8
S224215D602003126906EB0311107B7A791C0100923B793A68FFF7C8FFB879A31D8C8833449E
S224215D8060F3030407F10C028C8030B1184412F8011B03F8011B8342F9D1182D0DD08023A3
S224215DA00020354485F8203803B0F0BD96F84A385B06D3D54EF66720F6E7FF23002086F86E
S224215DC04B3803B0F0BD4EF6632003B0F0BD00BF2DE9F04F0C680D6904F58024A8342403F5
S224215DE00F46804685B04460EFF3108C012181F31088D84A3B685668C3F1020301FA03F3B0
S224215E0026EA0303536053688CF310884FF0000ABB680760C361FB68C0F820A043622B78A7
S224215E2052460376FFF714FF2B7D2A7BDB0043EA4203796843F4E07343F00103A4F84038D2
S224215E408B684A68013BD1F80CC0013A1B0243EA02730A680CF1FF3143EA0133511E027EBD
S224215E6004F500761343BC4AB14602EA0142134302215246C4F84438FFF7EAFE80233046CB
S224215E8051464FF4C07284F8503848F0E8FC564649462A6909E0964212D3A0190136182E16
S224215EA080F8203801F1100118D0A8684FEAC60E00EBC60C9CF80630002BECD00023ECE780
S224215EC09CF804309CF805C050F80E20287BCDF800C0FFF719FF40232A69DEE7920800F08A
S224215EE0478100236FF0604E4FF00F0B184669680397A1F1040C0CEB82025CF8041F9E0030
S224215F0071450ED295F80CA003F58079BAF1000F02D1924F07EA81410BFA06F644F8291004
S224215F203043944503F10103E7D1C043039FEE69C4F82804717B287B337BB268009104F57A
S224215F408461FFF7E1FE717D337D3269287B009104F22441FFF7D8FED6E90023297B21B96D
S224215F607E4901EA824201EA8343C4F818240022C4F81C3440461146FFF76AFEB4F840384F
S224215F8043F02003A4F84038B4F84038C3F340109B06F9D4397D97F91520714EDFF8CCC13B
S224215FA00901704B06EB020EC9B28EF8001302F1C0014CF8228053F821E060F3104E43F80F
S224215FC021E053F82110BFF35F8F01214FEA521E4FEA8E0E02F01F020EF1604E0EF5614E6C
S224215FE001FA02F2CEF88021CEF8002097F814E097F916204FEA0E1E06EB02095FFA8EFEB0
S22421600089F800E302F1C00E4CF8228053F82E9060F3104943F82E9053F82EE0BFF35F8FA8
S2242160204FEA521E4FEA8E0E02F01F020EF1604E01FA02F20EF5614ECEF88021CEF800200E
S22421604097F814E097F917204FEA0E1E06EB02095FFA8EFE89F800E302F1C00E4CF822807F
S22421606053F82E9060F3104943F82E9053F82EE0BFF35F8F4FEA521E4FEA8E0E02F01F02C2
S2242160800EF1604E01FA02F20EF5614ECEF88021CEF800203E22AD6984F84C2897F814E056
S2242160A095F905204FEA0E1E06EB02095FFA8EFE89F800E302F1C00E4CF8228053F82E90AD
S2242160C060F3104943F82E9053F82EE0BFF35F8F4FEA521E4FEA8E0E02F01F020EF1604EBE
S2242160E001FA02F20EF5614ECEF88021CEF800203F7D95F904203F011644FFB286F80073E2
S22421610002F1C0064CF8228053F8267060F3104743F8267053F82630BFF35F8F53099B0026
S22421612002F01F0203F1604301FA02F203F56143C3F880211A602B6863F07F43C4F82C346A
S224216140094B84F84A1884F84818C8F8083005B0BDE8F08F004008400000FF030000FC1F95
S22421616000E100E0006000404E414352FC8900204FF0FF30DBE600BF30B58BB0EFF3038359
S224216180103B304A5BB2C03352F823106FF3104142F8231052F82330EFF303832A48103BB5
S2242161A05BB250F8235028220021684648F057FB00206C6894F84D3884F84D08DBB2ADF846
S2242161C00430B4F84218C1F30012C90638D543F02003ADF80430022394F8532884F853385B
S2242161E094F85238D2B203F01F0384F85328E11891F8202860F3820281F820282A68694630
S224216200126803936B6A284604930092FFF7ECFCB4F84238DB0611D52B681A69127D6AB151
S22421622093F91530002B09DB01215A09074803F01F03403201FA03F340F822300BB030BDDA
S2242162401346DBE700600040FC89002000E100E02DE9F0438BB0EFF30383103B5E4A5BB20B
S224216260C03352F823106FF3104142F8231052F82330EFF303854FF48062584B103D6EB22C
S22421628053F8260005F0FF05D0E90084D8F81030ADF804209F6997F90520B24200F08880AF
S2242162A0002194F8532884F8531894F852E8D2B284F853280EF01F0E0EF120024FEA021CC5
S2242162C054F80C10C1F380798DF8199054F80CC01B7B43EADC7303F001038DF81830002B3C
S2242162E051D1C1F38A41059104EB02129188C1F3030301F00F0108298DF81A303AD908212E
S2242163008DF81A10002308AA04EB0E1909EB030C9CF806C20133994202F801CBF6D8BEF10C
S2242163201C0F2CD0442204EB0E0383F82028D8F800306946009300230793436ACDF80CE08A
S2242163400493FFF751FC97F90530B3421ED0B4F84238DB070BD5002E09DB0123204A76098E
S22421636005F01F05403603FA05F542F826500BB0BDE8F0830029C5D1BEF11C0FD2D1FF2390
S22421638084F84938D3E721F06041ACE794F84838DB09ECD1002EEADB01221149730905F04D
S2242163A01F054033AA4041F823200BB0BDE8F08394F84828D2060CD54FF4884194F848282A
S2242163C04FF01C0E6FF30412ADF8041084F8482872E74FF01C0E6FE700600040FC890020B4
S2242163E000E100E0F0B58BB0EFF30383103B2F4A5BB2C03352F823106FF3104142F823100D
S22421640052F82330EFF303840022294B103C64B253F82450D5E900160B69ADF804209F6980
S22421642097F90430A34236D001234FF4006C96F8530886F8533896F85238C0B203F01F0323
S2242164400393334486F8530883F8202883F820280B68284600936B6A69460493ADF804C0B2
S224216460FFF7C2FB97F90430A34212D0B6F842389B070ED52B6893F91730002B09DB012174
S2242164805A090C4803F01F03403201FA03F340F822300BB0F0BD182303933B6813F0007FBF
S2242164A014BF4FF4205C4FF4006CD1E700600040FC89002000E100E003461A689B8A0020A7
S2242164C01380704703461B68103133F81130002013807047002800DA704710B400F1604358
S2242164E00901134CC9B203F5614383F80013114B00F1C00144F8202053F821206FF310429E
S22421650043F8212053F82130BFF35F8F012243099B0000F01F0003F1604303F5614302FA55
S22421652000F0C3F8800118605DF8044B704700BFFC890020006000402DE9F0410027CA6892
S2242165400B884E6982610A695B02C0E9077203F1804303F5B81303604160054648790C461A
S224216560F2788978030243EA4133002A58D043F43073022814BF00202F499BB208BF31F8E6
S2242165802200AB822279E178D20342EA4102717896F800C042EA4112EFF31088012181F388
S2242165A01088B4F800E0254FCEF1100E01FA0EF1D7F80CE02EEA0101F960F96888F31088A4
S2242165C047F6FF510B40296892B20B800882CA8181F80CC073792A46A3F10103B3FA83F32C
S2242165E05B0981F8D030217A94F90600FFF772FF2A46617A94F90700FFF76CFF2A46317AA8
S22421660096F90600FFF766FF96F907002A46717AFFF760FF00200A4B2861AB60BDE8F081FF
S22421662030B943F4004343F040039BB2AB82A9E743F040039DE700BF287906000040084069
S22421664043444152026930B504467AB34FF0FF3301204FEA72729E46013300FA03FC1CEA6D
S224216660020FF8D0B2FA82F2C3F120039B1A22680EF10E0E02EB4E024B600A6001234FF411
S2242166807A6C0B7263680A4D1B8800201A1D52004A72D5F87C2103EB43035B0003F5B07333
S2242166A092B24B81CA60A1F810C030BD4A60E5E700B07F4043682DE9F0430C684A685E695E
S2242166C003688D681FFA84F8A3F804801FFA82F8A3F8148022F0C04C1FFA85F824F0C04EE8
S2242166E025F0C0472243A3F808804FEA1C4C3F0C4FEA1E4812F0C04FA3F80680A3F816C0A2
S2242167005F8153D1CF68002F00F0AF80B7F808C01CF4006F20D0D7E90052B7F80A80A3F8FE
S22421672090C0A3F89C80B7F80C80A3F89E801FFA85F8A3F89480C5F30B486D0FA3F89680BB
S22421674083F8925095B2A3F89850C2F30B45520FA3F89A5083F893201CF4007F1AD10A8AC5
S224216760A3F890C0A3F88020F2786AB1BEFA8EFE1A88818A92B222F01F021F32A2EB0E02F2
S22421678092B211431A808182394BC0E903340020BDE8F083BA7CFD7C2A4383F8A620FA8922
S2242167A0A3F8A8203A8AA3F8AA20D8E741F23608304FD7F82090304FC9F3026C3F68C9F3ED
